{
  "_format": "hh-sol-artifact-1",
  "contractName": "GreenProof",
  "sourceName": "contracts/GreenProof.sol",
  "abi": [
    {
      "inputs": [
        {
          "internalType": "address",
          "name": "badgeAddress",
          "type": "address"
        }
      ],
      "stateMutability": "nonpayable",
      "type": "constructor"
    },
    {
      "anonymous": false,
      "inputs": [
        {
          "indexed": true,
          "internalType": "address",
          "name": "user",
          "type": "address"
        },
        {
          "indexed": false,
          "internalType": "string",
          "name": "category",
          "type": "string"
        },
        {
          "indexed": false,
          "internalType": "uint256",
          "name": "value",
          "type": "uint256"
        },
        {
          "indexed": false,
          "internalType": "uint256",
          "name": "timestamp",
          "type": "uint256"
        }
      ],
      "name": "ActionRecorded",
      "type": "event"
    },
    {
      "anonymous": false,
      "inputs": [
        {
          "indexed": true,
          "internalType": "address",
          "name": "user",
          "type": "address"
        },
        {
          "indexed": false,
          "internalType": "uint8",
          "name": "level",
          "type": "uint8"
        }
      ],
      "name": "BadgeMinted",
      "type": "event"
    },
    {
      "inputs": [],
      "name": "BADGE_LV1_COUNT",
      "outputs": [
        {
          "internalType": "uint256",
          "name": "",
          "type": "uint256"
        }
      ],
      "stateMutability": "view",
      "type": "function"
    },
    {
      "inputs": [],
      "name": "BADGE_LV2_COUNT",
      "outputs": [
        {
          "internalType": "uint256",
          "name": "",
          "type": "uint256"
        }
      ],
      "stateMutability": "view",
      "type": "function"
    },
    {
      "inputs": [],
      "name": "badge",
      "outputs": [
        {
          "internalType": "contract IGreenBadgeNFT",
          "name": "",
          "type": "address"
        }
      ],
      "stateMutability": "view",
      "type": "function"
    },
    {
      "inputs": [
        {
          "internalType": "uint32",
          "name": "inc",
          "type": "uint32"
        },
        {
          "internalType": "uint32",
          "name": "capPlain",
          "type": "uint32"
        }
      ],
      "name": "cappedAccumulate",
      "outputs": [],
      "stateMutability": "nonpayable",
      "type": "function"
    },
    {
      "inputs": [
        {
          "internalType": "uint256",
          "name": "limit",
          "type": "uint256"
        }
      ],
      "name": "getTopUsers",
      "outputs": [
        {
          "internalType": "address[]",
          "name": "",
          "type": "address[]"
        }
      ],
      "stateMutability": "view",
      "type": "function"
    },
    {
      "inputs": [],
      "name": "getTotalActions",
      "outputs": [
        {
          "internalType": "uint256",
          "name": "",
          "type": "uint256"
        }
      ],
      "stateMutability": "view",
      "type": "function"
    },
    {
      "inputs": [
        {
          "internalType": "address",
          "name": "user",
          "type": "address"
        }
      ],
      "name": "getUserActions",
      "outputs": [
        {
          "components": [
            {
              "internalType": "uint256",
              "name": "timestamp",
              "type": "uint256"
            },
            {
              "internalType": "string",
              "name": "category",
              "type": "string"
            },
            {
              "internalType": "string",
              "name": "description",
              "type": "string"
            },
            {
              "internalType": "euint32",
              "name": "value",
              "type": "bytes32"
            }
          ],
          "internalType": "struct GreenProof.Action[]",
          "name": "",
          "type": "tuple[]"
        }
      ],
      "stateMutability": "view",
      "type": "function"
    },
    {
      "inputs": [
        {
          "internalType": "address",
          "name": "user",
          "type": "address"
        }
      ],
      "name": "getUserEncryptedCount",
      "outputs": [
        {
          "internalType": "euint32",
          "name": "",
          "type": "bytes32"
        }
      ],
      "stateMutability": "view",
      "type": "function"
    },
    {
      "inputs": [
        {
          "internalType": "address",
          "name": "user",
          "type": "address"
        }
      ],
      "name": "getUserEncryptedSum",
      "outputs": [
        {
          "internalType": "euint32",
          "name": "",
          "type": "bytes32"
        }
      ],
      "stateMutability": "view",
      "type": "function"
    },
    {
      "inputs": [
        {
          "internalType": "address",
          "name": "to",
          "type": "address"
        }
      ],
      "name": "grantAccess",
      "outputs": [],
      "stateMutability": "nonpayable",
      "type": "function"
    },
    {
      "inputs": [
        {
          "internalType": "address",
          "name": "to",
          "type": "address"
        }
      ],
      "name": "grantTransientAccess",
      "outputs": [],
      "stateMutability": "nonpayable",
      "type": "function"
    },
    {
      "inputs": [
        {
          "internalType": "address",
          "name": "user",
          "type": "address"
        },
        {
          "internalType": "externalEuint32",
          "name": "threshold",
          "type": "bytes32"
        },
        {
          "internalType": "bytes",
          "name": "proof",
          "type": "bytes"
        }
      ],
      "name": "isCountAtLeast",
      "outputs": [
        {
          "internalType": "ebool",
          "name": "",
          "type": "bytes32"
        }
      ],
      "stateMutability": "nonpayable",
      "type": "function"
    },
    {
      "inputs": [
        {
          "internalType": "uint8",
          "name": "level",
          "type": "uint8"
        }
      ],
      "name": "mintBadge",
      "outputs": [],
      "stateMutability": "nonpayable",
      "type": "function"
    },
    {
      "inputs": [],
      "name": "protocolId",
      "outputs": [
        {
          "internalType": "uint256",
          "name": "",
          "type": "uint256"
        }
      ],
      "stateMutability": "pure",
      "type": "function"
    },
    {
      "inputs": [
        {
          "internalType": "string",
          "name": "category",
          "type": "string"
        },
        {
          "internalType": "string",
          "name": "description",
          "type": "string"
        },
        {
          "internalType": "externalEuint32",
          "name": "inputValue32",
          "type": "bytes32"
        },
        {
          "internalType": "bytes",
          "name": "inputProof",
          "type": "bytes"
        }
      ],
      "name": "recordAction",
      "outputs": [],
      "stateMutability": "nonpayable",
      "type": "function"
    },
    {
      "inputs": [
        {
          "internalType": "address",
          "name": "",
          "type": "address"
        }
      ],
      "name": "userActionCount",
      "outputs": [
        {
          "internalType": "uint256",
          "name": "",
          "type": "uint256"
        }
      ],
      "stateMutability": "view",
      "type": "function"
    }
  ],
  "bytecode": "0x60a060405234801561000f575f5ffd5b50604051611c62380380611c6283398101604081905261002e916101b9565b6101a86100cc604080516080810182525f808252602082018190529181018290526060810191909152506040805160808101825273687820221192c5b662b25367f70076a37bc79b6c815273848b0066793bcc60346da1f49049357399b8d595602082015273a02cda4ca3a71d7c46997716f4283aa851c2881291810191909152731364cbbf2cdf5032c47d8226a6f6fbd2afcdacac606082015290565b80517f9e7b61f58c47dc699ac88507c4f5bb9f121c03808c5676a8078fe583e464970080546001600160a01b03199081166001600160a01b039384161790915560208301517f9e7b61f58c47dc699ac88507c4f5bb9f121c03808c5676a8078fe583e46497018054831691841691909117905560408301517f9e7b61f58c47dc699ac88507c4f5bb9f121c03808c5676a8078fe583e46497028054831691841691909117905560608301517f9e7b61f58c47dc699ac88507c4f5bb9f121c03808c5676a8078fe583e46497038054909216921691909117905550565b6001600160a01b03166080526101e6565b5f602082840312156101c9575f5ffd5b81516001600160a01b03811681146101df575f5ffd5b9392505050565b608051611a5661020c5f395f818161019d01528181610c6c0152610d010152611a565ff3fe608060405234801561000f575f5ffd5b50600436106100fb575f3560e01c8063bfe4ea7e11610093578063f059441511610063578063f059441514610247578063f23e394114610266578063f72b3e8814610279578063fcc032931461028c575f5ffd5b8063bfe4ea7e146101d7578063d5f97088146101ff578063da1f12ab1461021f578063de75aa6c14610227575f5ffd5b806358e1b0db116100ce57806358e1b0db146101755780638d1b50241461017d5780638e4dc3201461018557806391d768de14610198575f5ffd5b8063077e0979146100ff5780630ae5e7391461013a578063244e73411461014f578063478c0ae614610162575b5f5ffd5b61012761010d366004611440565b6001600160a01b03165f9081526003602052604090205490565b6040519081526020015b60405180910390f35b61014d610148366004611440565b610294565b005b61014d61015d366004611440565b610326565b61014d610170366004611459565b6103b2565b610127601481565b610127600181565b61014d61019336600461148c565b61046f565b6101bf7f000000000000000000000000000000000000000000000000000000000000000081565b6040516001600160a01b039091168152602001610131565b6101276101e5366004611440565b6001600160a01b03165f9081526004602052604090205490565b61021261020d366004611440565b6104fc565b60405161013191906114eb565b612711610127565b61023a61023536600461158a565b61069f565b60405161013191906115a1565b610127610255366004611440565b60026020525f908152604090205481565b610127610274366004611631565b6108f6565b61014d610287366004611726565b610966565b600154610127565b335f908152600360205260409020546102ad9082610c25565b50335f908152600460205260409020546102c79082610c25565b50335f90815260208190526040902054801561032257335f908152602081905260409020610320906102fa6001846117d8565b8154811061030a5761030a6117eb565b905f5260205f2090600402016003015483610c25565b505b5050565b335f9081526003602052604090205461033f9082610c39565b50335f908152600460205260409020546103599082610c39565b50335f90815260208190526040902054801561032257335f9081526020819052604090206103209061038c6001846117d8565b8154811061039c5761039c6117eb565b905f5260205f2090600402016003015483610c39565b8060ff1660011480156103d45750335f90815260026020526040902054600111155b156103e7576103e4336001610c44565b50565b8060ff1660021480156104095750335f90815260026020526040902054601411155b15610419576103e4336002610c44565b60405162461bcd60e51b815260206004820152602160248201527f62616467653a756e737570706f727465642d6f722d6e6f742d656c696769626c6044820152606560f81b606482015260840160405180910390fd5b5f61047983610d9d565b90505f61048583610d9d565b335f90815260036020526040812054919250906104a29084610daf565b90505f6104af8284610de4565b90505f6104bd828585610e12565b335f90815260036020526040902081905590506104d981610e26565b50335f818152600360205260409020546104f291610c25565b5050505050505050565b6001600160a01b0381165f90815260208181526040808320805482518185028101850190935280835260609492939192909184015b82821015610694578382905f5260205f2090600402016040518060800160405290815f820154815260200160018201805461056b906117ff565b80601f0160208091040260200160405190810160405280929190818152602001828054610597906117ff565b80156105e25780601f106105b9576101008083540402835291602001916105e2565b820191905f5260205f20905b8154815290600101906020018083116105c557829003601f168201915b505050505081526020016002820180546105fb906117ff565b80601f0160208091040260200160405190810160405280929190818152602001828054610627906117ff565b80156106725780601f1061064957610100808354040283529160200191610672565b820191905f5260205f20905b81548152906001019060200180831161065557829003601f168201915b5050505050815260200160038201548152505081526020019060010190610531565b505050509050919050565b6005546060905f8390036106b257600a92505b805f036106ce575050604080515f815260208101909152919050565b5f8367ffffffffffffffff8111156106e8576106e8611687565b604051908082528060200260200182016040528015610711578160200160208202803683370190505b5090505f8467ffffffffffffffff81111561072e5761072e611687565b604051908082528060200260200182016040528015610757578160200160208202803683370190505b5090505f5b838110156108ec575f60058281548110610778576107786117eb565b5f9182526020808320909101546001600160a01b031680835260029091526040822054909250905b888110156108e1578481815181106107ba576107ba6117eb565b60200260200101518211156108d9575f6107d560018b6117d8565b90505b8181111561088157856107ec6001836117d8565b815181106107fc576107fc6117eb565b6020026020010151868281518110610816576108166117eb565b60209081029190910101528661082d6001836117d8565b8151811061083d5761083d6117eb565b6020026020010151878281518110610857576108576117eb565b6001600160a01b03909216602092830291909101909101528061087981611837565b9150506107d8565b5081858281518110610895576108956117eb565b602002602001018181525050828682815181106108b4576108b46117eb565b60200260200101906001600160a01b031690816001600160a01b0316815250506108e1565b6001016107a0565b50505060010161075c565b5090949350505050565b5f5f6109378585858080601f0160208091040260200160405190810160405280939291908181526020018383808284375f92019190915250610e3592505050565b6001600160a01b0387165f9081526004602052604090205490915061095c9082610e42565b9695505050505050565b5f6109a68484848080601f0160208091040260200160405190810160405280939291908181526020018383808284375f92019190915250610e3592505050565b90505f6109b36064610d9d565b90505f6109c08383610e70565b6040805160808101825242815260208082018c81528284018c905260608301859052335f9081528083529384208054600181810183559186529290942083516004909302019182555193945090928392820190610a1d9082611897565b5060408201516002820190610a329082611897565b5060609190910151600390910155335f9081526006602052604090205460ff16610aca57335f818152600660205260408120805460ff191660019081179091556005805491820181559091527f036b6384b5eca791c62761152d0c79bb0604c104a5fb6f4eb0703f3154bb3db00180547fffffffffffffffffffffffff00000000000000000000000000000000000000001690911790555b335f90815260036020526040902054610ae39083610daf565b335f90815260036020908152604080832093909355600490522054610b09906001610e9e565b335f9081526004602090815260408083209390935560029052908120805460019290610b36908490611952565b925050819055506001805f828254610b4e9190611952565b90915550506060810151610b6190610e26565b50610b70816060015133610c25565b50335f90815260036020526040902054610b8990610e26565b50335f81815260036020526040902054610ba291610c25565b50335f90815260046020526040902054610bbb90610e26565b50335f81815260046020526040902054610bd491610c25565b50336001600160a01b03167f99ccb2be1504f518544a15f7dca948f0755282bd738fc1f32d32e77d3891b32f8a5f42604051610c1293929190611965565b60405180910390a2505050505050505050565b5f610c308383610ec2565b50815b92915050565b5f610c308383610f36565b604051630263dc2f60e41b81526001600160a01b03838116600483015260ff831660248301527f0000000000000000000000000000000000000000000000000000000000000000169063263dc2f090604401602060405180830381865afa158015610cb1573d5f5f3e3d5ffd5b505050506040513d601f19601f82011682018060405250810190610cd59190611989565b61032257604051630348ab1560e51b81526001600160a01b03838116600483015260ff831660248301527f0000000000000000000000000000000000000000000000000000000000000000169063691562a0906044015f604051808303815f87803b158015610d42575f5ffd5b505af1158015610d54573d5f5f3e3d5ffd5b505060405160ff841681526001600160a01b03851692507fb4ae129732c9f7b24d6fe0922a4b4797c573f1e515bd54ae020c10e349f4d9c2915060200160405180910390a25050565b5f610c338263ffffffff166004610f7c565b5f82610dc157610dbe5f610d9d565b92505b81610dd257610dcf5f610d9d565b91505b610ddd83835f61101e565b9392505050565b5f82610df657610df35f610d9d565b92505b81610e0757610e045f610d9d565b91505b610ddd83835f6110e4565b5f610e1e84848461116e565b949350505050565b5f610e318230610ec2565b5090565b5f610ddd83836004611204565b5f82610e5457610e515f610d9d565b92505b81610e6557610e625f610d9d565b91505b610ddd83835f611311565b5f82610e8257610e7f5f610d9d565b92505b81610e9357610e905f610d9d565b91505b610ddd83835f61139b565b5f82610eb057610ead5f610d9d565b92505b610ddd8363ffffffff8416600161101e565b5f516020611a2a5f395f51905f528054604051635ca4b5b160e11b8152600481018590526001600160a01b0384811660248301529091169063b9496b62906044015b5f604051808303815f87803b158015610f1b575f5ffd5b505af1158015610f2d573d5f5f3e3d5ffd5b50505050505050565b5f516020611a2a5f395f51905f528054604051630f8e573b60e21b8152600481018590526001600160a01b03848116602483015290911690633e395cec90604401610f04565b7f9e7b61f58c47dc699ac88507c4f5bb9f121c03808c5676a8078fe583e464970154604051639cd07acb60e01b81525f915f516020611a2a5f395f51905f52916001600160a01b0390911690639cd07acb90610fde90879087906004016119c8565b6020604051808303815f875af1158015610ffa573d5f5f3e3d5ffd5b505050506040513d601f19601f82011682018060405250810190610e1e91906119dc565b5f5f82156110315750600160f81b611034565b505f5b7f9e7b61f58c47dc699ac88507c4f5bb9f121c03808c5676a8078fe583e46497015460405163022f65e760e31b815260048101879052602481018690526001600160f81b0319831660448201525f516020611a2a5f395f51905f52916001600160a01b03169063117b2f38906064015b6020604051808303815f875af11580156110c0573d5f5f3e3d5ffd5b505050506040513d601f19601f8201168201806040525081019061095c91906119dc565b5f5f82156110f75750600160f81b6110fa565b505f5b7f9e7b61f58c47dc699ac88507c4f5bb9f121c03808c5676a8078fe583e4649701546040516385362ee760e01b815260048101879052602481018690526001600160f81b0319831660448201525f516020611a2a5f395f51905f52916001600160a01b0316906385362ee7906064016110a4565b5f805f516020611a2a5f395f51905f526001810154604051637702dcff60e01b81526004810188905260248101879052604481018690529192506001600160a01b031690637702dcff906064016020604051808303815f875af11580156111d7573d5f5f3e3d5ffd5b505050506040513d601f19601f820116820180604052508101906111fb91906119dc565b95945050505050565b7f9e7b61f58c47dc699ac88507c4f5bb9f121c03808c5676a8078fe583e46497015460405163196d0b9b60e01b81525f915f516020611a2a5f395f51905f52916001600160a01b039091169063196d0b9b9061126a9088903390899089906004016119f3565b6020604051808303815f875af1158015611286573d5f5f3e3d5ffd5b505050506040513d601f19601f820116820180604052508101906112aa91906119dc565b8154604051630f8e573b60e21b8152600481018390523360248201529193506001600160a01b031690633e395cec906044015f604051808303815f87803b1580156112f3575f5ffd5b505af1158015611305573d5f5f3e3d5ffd5b50505050509392505050565b5f5f82156113245750600160f81b611327565b505f5b7f9e7b61f58c47dc699ac88507c4f5bb9f121c03808c5676a8078fe583e464970154604051631391547f60e01b815260048101879052602481018690526001600160f81b0319831660448201525f516020611a2a5f395f51905f52916001600160a01b031690631391547f906064016110a4565b5f5f82156113ae5750600160f81b6113b1565b505f5b7f9e7b61f58c47dc699ac88507c4f5bb9f121c03808c5676a8078fe583e4649701546040516304559f7160e01b815260048101879052602481018690526001600160f81b0319831660448201525f516020611a2a5f395f51905f52916001600160a01b0316906304559f71906064016110a4565b80356001600160a01b038116811461143b575f5ffd5b919050565b5f60208284031215611450575f5ffd5b610ddd82611425565b5f60208284031215611469575f5ffd5b813560ff81168114610ddd575f5ffd5b803563ffffffff8116811461143b575f5ffd5b5f5f6040838503121561149d575f5ffd5b6114a683611479565b91506114b460208401611479565b90509250929050565b5f81518084528060208401602086015e5f602082860101526020601f19601f83011685010191505092915050565b5f602082016020835280845180835260408501915060408160051b8601019250602086015f5b8281101561157e57603f1987860301845281518051865260208101516080602088015261154160808801826114bd565b90506040820151878203604089015261155a82826114bd565b60609384015198909301979097525094506020938401939190910190600101611511565b50929695505050505050565b5f6020828403121561159a575f5ffd5b5035919050565b602080825282518282018190525f918401906040840190835b818110156115e15783516001600160a01b03168352602093840193909201916001016115ba565b509095945050505050565b5f5f83601f8401126115fc575f5ffd5b50813567ffffffffffffffff811115611613575f5ffd5b60208301915083602082850101111561162a575f5ffd5b9250929050565b5f5f5f5f60608587031215611644575f5ffd5b61164d85611425565b935060208501359250604085013567ffffffffffffffff81111561166f575f5ffd5b61167b878288016115ec565b95989497509550505050565b634e487b7160e01b5f52604160045260245ffd5b5f82601f8301126116aa575f5ffd5b813567ffffffffffffffff8111156116c4576116c4611687565b604051601f8201601f19908116603f0116810167ffffffffffffffff811182821017156116f3576116f3611687565b60405281815283820160200185101561170a575f5ffd5b816020850160208301375f918101602001919091529392505050565b5f5f5f5f5f6080868803121561173a575f5ffd5b853567ffffffffffffffff811115611750575f5ffd5b61175c8882890161169b565b955050602086013567ffffffffffffffff811115611778575f5ffd5b6117848882890161169b565b94505060408601359250606086013567ffffffffffffffff8111156117a7575f5ffd5b6117b3888289016115ec565b969995985093965092949392505050565b634e487b7160e01b5f52601160045260245ffd5b81810381811115610c3357610c336117c4565b634e487b7160e01b5f52603260045260245ffd5b600181811c9082168061181357607f821691505b60208210810361183157634e487b7160e01b5f52602260045260245ffd5b50919050565b5f81611845576118456117c4565b505f190190565b601f82111561032057805f5260205f20601f840160051c810160208510156118715750805b601f840160051c820191505b81811015611890575f815560010161187d565b5050505050565b815167ffffffffffffffff8111156118b1576118b1611687565b6118c5816118bf84546117ff565b8461184c565b6020601f8211600181146118f7575f83156118e05750848201515b5f19600385901b1c1916600184901b178455611890565b5f84815260208120601f198516915b828110156119265787850151825560209485019460019092019101611906565b508482101561194357868401515f19600387901b60f8161c191681555b50505050600190811b01905550565b80820180821115610c3357610c336117c4565b606081525f61197760608301866114bd565b60208301949094525060400152919050565b5f60208284031215611999575f5ffd5b81518015158114610ddd575f5ffd5b605481106119c457634e487b7160e01b5f52602160045260245ffd5b9052565b82815260408101610ddd60208301846119a8565b5f602082840312156119ec575f5ffd5b5051919050565b8481526001600160a01b0384166020820152608060408201525f611a1a60808301856114bd565b90506111fb60608301846119a856fe9e7b61f58c47dc699ac88507c4f5bb9f121c03808c5676a8078fe583e4649700a164736f6c634300081b000a",
  "linkReferences": {},
  "deployedLinkReferences": {}
}