{
  "_format": "hh-sol-artifact-1",
  "contractName": "GreenBadgeNFT",
  "sourceName": "contracts/GreenBadgeNFT.sol",
  "abi": [
    {
      "inputs": [
        {
          "internalType": "string",
          "name": "baseURI",
          "type": "string"
        }
      ],
      "stateMutability": "nonpayable",
      "type": "constructor"
    },
    {
      "inputs": [
        {
          "internalType": "address",
          "name": "sender",
          "type": "address"
        },
        {
          "internalType": "uint256",
          "name": "tokenId",
          "type": "uint256"
        },
        {
          "internalType": "address",
          "name": "owner",
          "type": "address"
        }
      ],
      "name": "ERC721IncorrectOwner",
      "type": "error"
    },
    {
      "inputs": [
        {
          "internalType": "address",
          "name": "operator",
          "type": "address"
        },
        {
          "internalType": "uint256",
          "name": "tokenId",
          "type": "uint256"
        }
      ],
      "name": "ERC721InsufficientApproval",
      "type": "error"
    },
    {
      "inputs": [
        {
          "internalType": "address",
          "name": "approver",
          "type": "address"
        }
      ],
      "name": "ERC721InvalidApprover",
      "type": "error"
    },
    {
      "inputs": [
        {
          "internalType": "address",
          "name": "operator",
          "type": "address"
        }
      ],
      "name": "ERC721InvalidOperator",
      "type": "error"
    },
    {
      "inputs": [
        {
          "internalType": "address",
          "name": "owner",
          "type": "address"
        }
      ],
      "name": "ERC721InvalidOwner",
      "type": "error"
    },
    {
      "inputs": [
        {
          "internalType": "address",
          "name": "receiver",
          "type": "address"
        }
      ],
      "name": "ERC721InvalidReceiver",
      "type": "error"
    },
    {
      "inputs": [
        {
          "internalType": "address",
          "name": "sender",
          "type": "address"
        }
      ],
      "name": "ERC721InvalidSender",
      "type": "error"
    },
    {
      "inputs": [
        {
          "internalType": "uint256",
          "name": "tokenId",
          "type": "uint256"
        }
      ],
      "name": "ERC721NonexistentToken",
      "type": "error"
    },
    {
      "inputs": [
        {
          "internalType": "address",
          "name": "owner",
          "type": "address"
        }
      ],
      "name": "OwnableInvalidOwner",
      "type": "error"
    },
    {
      "inputs": [
        {
          "internalType": "address",
          "name": "account",
          "type": "address"
        }
      ],
      "name": "OwnableUnauthorizedAccount",
      "type": "error"
    },
    {
      "anonymous": false,
      "inputs": [
        {
          "indexed": true,
          "internalType": "address",
          "name": "owner",
          "type": "address"
        },
        {
          "indexed": true,
          "internalType": "address",
          "name": "approved",
          "type": "address"
        },
        {
          "indexed": true,
          "internalType": "uint256",
          "name": "tokenId",
          "type": "uint256"
        }
      ],
      "name": "Approval",
      "type": "event"
    },
    {
      "anonymous": false,
      "inputs": [
        {
          "indexed": true,
          "internalType": "address",
          "name": "owner",
          "type": "address"
        },
        {
          "indexed": true,
          "internalType": "address",
          "name": "operator",
          "type": "address"
        },
        {
          "indexed": false,
          "internalType": "bool",
          "name": "approved",
          "type": "bool"
        }
      ],
      "name": "ApprovalForAll",
      "type": "event"
    },
    {
      "anonymous": false,
      "inputs": [
        {
          "indexed": true,
          "internalType": "address",
          "name": "previousOwner",
          "type": "address"
        },
        {
          "indexed": true,
          "internalType": "address",
          "name": "newOwner",
          "type": "address"
        }
      ],
      "name": "OwnershipTransferred",
      "type": "event"
    },
    {
      "anonymous": false,
      "inputs": [
        {
          "indexed": true,
          "internalType": "address",
          "name": "from",
          "type": "address"
        },
        {
          "indexed": true,
          "internalType": "address",
          "name": "to",
          "type": "address"
        },
        {
          "indexed": true,
          "internalType": "uint256",
          "name": "tokenId",
          "type": "uint256"
        }
      ],
      "name": "Transfer",
      "type": "event"
    },
    {
      "inputs": [
        {
          "internalType": "address",
          "name": "to",
          "type": "address"
        },
        {
          "internalType": "uint256",
          "name": "tokenId",
          "type": "uint256"
        }
      ],
      "name": "approve",
      "outputs": [],
      "stateMutability": "nonpayable",
      "type": "function"
    },
    {
      "inputs": [
        {
          "internalType": "address",
          "name": "owner",
          "type": "address"
        }
      ],
      "name": "balanceOf",
      "outputs": [
        {
          "internalType": "uint256",
          "name": "",
          "type": "uint256"
        }
      ],
      "stateMutability": "view",
      "type": "function"
    },
    {
      "inputs": [
        {
          "internalType": "uint256",
          "name": "tokenId",
          "type": "uint256"
        }
      ],
      "name": "getApproved",
      "outputs": [
        {
          "internalType": "address",
          "name": "",
          "type": "address"
        }
      ],
      "stateMutability": "view",
      "type": "function"
    },
    {
      "inputs": [
        {
          "internalType": "address",
          "name": "user",
          "type": "address"
        },
        {
          "internalType": "uint8",
          "name": "level",
          "type": "uint8"
        }
      ],
      "name": "hasLevel",
      "outputs": [
        {
          "internalType": "bool",
          "name": "",
          "type": "bool"
        }
      ],
      "stateMutability": "view",
      "type": "function"
    },
    {
      "inputs": [
        {
          "internalType": "address",
          "name": "owner",
          "type": "address"
        },
        {
          "internalType": "address",
          "name": "operator",
          "type": "address"
        }
      ],
      "name": "isApprovedForAll",
      "outputs": [
        {
          "internalType": "bool",
          "name": "",
          "type": "bool"
        }
      ],
      "stateMutability": "view",
      "type": "function"
    },
    {
      "inputs": [
        {
          "internalType": "address",
          "name": "to",
          "type": "address"
        },
        {
          "internalType": "uint8",
          "name": "level",
          "type": "uint8"
        }
      ],
      "name": "mint",
      "outputs": [],
      "stateMutability": "nonpayable",
      "type": "function"
    },
    {
      "inputs": [
        {
          "internalType": "address",
          "name": "",
          "type": "address"
        }
      ],
      "name": "minters",
      "outputs": [
        {
          "internalType": "bool",
          "name": "",
          "type": "bool"
        }
      ],
      "stateMutability": "view",
      "type": "function"
    },
    {
      "inputs": [],
      "name": "name",
      "outputs": [
        {
          "internalType": "string",
          "name": "",
          "type": "string"
        }
      ],
      "stateMutability": "view",
      "type": "function"
    },
    {
      "inputs": [],
      "name": "owner",
      "outputs": [
        {
          "internalType": "address",
          "name": "",
          "type": "address"
        }
      ],
      "stateMutability": "view",
      "type": "function"
    },
    {
      "inputs": [
        {
          "internalType": "uint256",
          "name": "tokenId",
          "type": "uint256"
        }
      ],
      "name": "ownerOf",
      "outputs": [
        {
          "internalType": "address",
          "name": "",
          "type": "address"
        }
      ],
      "stateMutability": "view",
      "type": "function"
    },
    {
      "inputs": [],
      "name": "renounceOwnership",
      "outputs": [],
      "stateMutability": "nonpayable",
      "type": "function"
    },
    {
      "inputs": [
        {
          "internalType": "address",
          "name": "from",
          "type": "address"
        },
        {
          "internalType": "address",
          "name": "to",
          "type": "address"
        },
        {
          "internalType": "uint256",
          "name": "tokenId",
          "type": "uint256"
        }
      ],
      "name": "safeTransferFrom",
      "outputs": [],
      "stateMutability": "nonpayable",
      "type": "function"
    },
    {
      "inputs": [
        {
          "internalType": "address",
          "name": "from",
          "type": "address"
        },
        {
          "internalType": "address",
          "name": "to",
          "type": "address"
        },
        {
          "internalType": "uint256",
          "name": "tokenId",
          "type": "uint256"
        },
        {
          "internalType": "bytes",
          "name": "data",
          "type": "bytes"
        }
      ],
      "name": "safeTransferFrom",
      "outputs": [],
      "stateMutability": "nonpayable",
      "type": "function"
    },
    {
      "inputs": [
        {
          "internalType": "address",
          "name": "operator",
          "type": "address"
        },
        {
          "internalType": "bool",
          "name": "approved",
          "type": "bool"
        }
      ],
      "name": "setApprovalForAll",
      "outputs": [],
      "stateMutability": "nonpayable",
      "type": "function"
    },
    {
      "inputs": [
        {
          "internalType": "string",
          "name": "baseURI",
          "type": "string"
        }
      ],
      "name": "setBaseURI",
      "outputs": [],
      "stateMutability": "nonpayable",
      "type": "function"
    },
    {
      "inputs": [
        {
          "internalType": "address",
          "name": "account",
          "type": "address"
        },
        {
          "internalType": "bool",
          "name": "allowed",
          "type": "bool"
        }
      ],
      "name": "setMinter",
      "outputs": [],
      "stateMutability": "nonpayable",
      "type": "function"
    },
    {
      "inputs": [
        {
          "internalType": "bytes4",
          "name": "interfaceId",
          "type": "bytes4"
        }
      ],
      "name": "supportsInterface",
      "outputs": [
        {
          "internalType": "bool",
          "name": "",
          "type": "bool"
        }
      ],
      "stateMutability": "view",
      "type": "function"
    },
    {
      "inputs": [],
      "name": "symbol",
      "outputs": [
        {
          "internalType": "string",
          "name": "",
          "type": "string"
        }
      ],
      "stateMutability": "view",
      "type": "function"
    },
    {
      "inputs": [
        {
          "internalType": "uint256",
          "name": "",
          "type": "uint256"
        }
      ],
      "name": "tokenLevel",
      "outputs": [
        {
          "internalType": "uint8",
          "name": "",
          "type": "uint8"
        }
      ],
      "stateMutability": "view",
      "type": "function"
    },
    {
      "inputs": [
        {
          "internalType": "uint256",
          "name": "tokenId",
          "type": "uint256"
        }
      ],
      "name": "tokenURI",
      "outputs": [
        {
          "internalType": "string",
          "name": "",
          "type": "string"
        }
      ],
      "stateMutability": "view",
      "type": "function"
    },
    {
      "inputs": [
        {
          "internalType": "address",
          "name": "from",
          "type": "address"
        },
        {
          "internalType": "address",
          "name": "to",
          "type": "address"
        },
        {
          "internalType": "uint256",
          "name": "tokenId",
          "type": "uint256"
        }
      ],
      "name": "transferFrom",
      "outputs": [],
      "stateMutability": "nonpayable",
      "type": "function"
    },
    {
      "inputs": [
        {
          "internalType": "address",
          "name": "newOwner",
          "type": "address"
        }
      ],
      "name": "transferOwnership",
      "outputs": [],
      "stateMutability": "nonpayable",
      "type": "function"
    }
  ],
  "bytecode": "0x608060405234801561000f575f5ffd5b506040516118b13803806118b183398101604081905261002e91610143565b336040518060400160405280600a815260200169477265656e426164676560b01b8152506040518060400160405280600681526020016547424144474560d01b815250815f908161007f9190610277565b50600161008c8282610277565b5050506001600160a01b0381166100bc57604051631e4fbdf760e01b81525f600482015260240160405180910390fd5b6100c5816100de565b50600a6100d28282610277565b50506001600755610331565b600680546001600160a01b038381166001600160a01b0319831681179093556040519116919082907f8be0079c531659141344cd1fd0a4f28419497f9722a3daafe3b4186f6b6457e0905f90a35050565b634e487b7160e01b5f52604160045260245ffd5b5f60208284031215610153575f5ffd5b81516001600160401b03811115610168575f5ffd5b8201601f81018413610178575f5ffd5b80516001600160401b038111156101915761019161012f565b604051601f8201601f19908116603f011681016001600160401b03811182821017156101bf576101bf61012f565b6040528181528282016020018610156101d6575f5ffd5b8160208401602083015e5f91810160200191909152949350505050565b600181811c9082168061020757607f821691505b60208210810361022557634e487b7160e01b5f52602260045260245ffd5b50919050565b601f82111561027257805f5260205f20601f840160051c810160208510156102505750805b601f840160051c820191505b8181101561026f575f815560010161025c565b50505b505050565b81516001600160401b038111156102905761029061012f565b6102a48161029e84546101f3565b8461022b565b6020601f8211600181146102d6575f83156102bf5750848201515b5f19600385901b1c1916600184901b17845561026f565b5f84815260208120601f198516915b8281101561030557878501518255602094850194600190920191016102e5565b508482101561032257868401515f19600387901b60f8161c191681555b50505050600190811b01905550565b6115738061033e5f395ff3fe608060405234801561000f575f5ffd5b5060043610610179575f3560e01c8063715018a6116100d2578063b88d4fde11610088578063e985e9c511610063578063e985e9c514610356578063f2fde38b14610391578063f46eccc4146103a4575f5ffd5b8063b88d4fde1461031d578063c87b56dd14610330578063cf456ae714610343575f5ffd5b806395d89b41116100b857806395d89b41146102ce578063a22cb465146102d6578063ab8ece8b146102e9575f5ffd5b8063715018a6146102b55780638da5cb5b146102bd575f5ffd5b8063263dc2f0116101325780636352211e1161010d5780636352211e1461026e578063691562a01461028157806370a0823114610294575f5ffd5b8063263dc2f01461020d57806342842e0e1461024857806355f804b31461025b575f5ffd5b8063081812fc11610162578063081812fc146101ba578063095ea7b3146101e557806323b872dd146101fa575f5ffd5b806301ffc9a71461017d57806306fdde03146101a5575b5f5ffd5b61019061018b366004611086565b6103c6565b60405190151581526020015b60405180910390f35b6101ad610417565b60405161019c91906110cf565b6101cd6101c83660046110e1565b6104a6565b6040516001600160a01b03909116815260200161019c565b6101f86101f3366004611113565b6104cd565b005b6101f861020836600461113b565b6104dc565b61019061021b366004611175565b6001600160a01b03919091165f90815260086020908152604080832060ff94851684529091529020541690565b6101f861025636600461113b565b61056a565b6101f86102693660046111af565b610589565b6101cd61027c3660046110e1565b61059e565b6101f861028f366004611175565b6105a8565b6102a76102a236600461121d565b61074a565b60405190815260200161019c565b6101f861078f565b6006546001600160a01b03166101cd565b6101ad6107a2565b6101f86102e4366004611236565b6107b1565b61030b6102f73660046110e1565b60096020525f908152604090205460ff1681565b60405160ff909116815260200161019c565b6101f861032b366004611278565b6107bc565b6101ad61033e3660046110e1565b6107d4565b6101f8610351366004611236565b610839565b610190610364366004611355565b6001600160a01b039182165f90815260056020908152604080832093909416825291909152205460ff1690565b6101f861039f36600461121d565b61086b565b6101906103b236600461121d565b600b6020525f908152604090205460ff1681565b5f6001600160e01b031982166380ac58cd60e01b14806103f657506001600160e01b03198216635b5e139f60e01b145b8061041157506301ffc9a760e01b6001600160e01b03198316145b92915050565b60605f805461042590611386565b80601f016020809104026020016040519081016040528092919081815260200182805461045190611386565b801561049c5780601f106104735761010080835404028352916020019161049c565b820191905f5260205f20905b81548152906001019060200180831161047f57829003601f168201915b5050505050905090565b5f6104b0826108a8565b505f828152600460205260409020546001600160a01b0316610411565b6104d88282336108e0565b5050565b6001600160a01b03821661050a57604051633250574960e11b81525f60048201526024015b60405180910390fd5b5f6105168383336108ed565b9050836001600160a01b0316816001600160a01b031614610564576040516364283d7b60e01b81526001600160a01b0380861660048301526024820184905282166044820152606401610501565b50505050565b61058483838360405180602001604052805f8152506107bc565b505050565b6105916109ec565b600a610584828483611402565b5f610411826108a8565b335f908152600b602052604090205460ff166106065760405162461bcd60e51b815260206004820152600a60248201527f6e6f74206d696e746572000000000000000000000000000000000000000000006044820152606401610501565b60018160ff161015801561061e575060038160ff1611155b61066a5760405162461bcd60e51b815260206004820152600d60248201527f696e76616c6964206c6576656c000000000000000000000000000000000000006044820152606401610501565b6001600160a01b0382165f90815260086020908152604080832060ff808616855292529091205416156106df5760405162461bcd60e51b815260206004820152600d60248201527f616c7265616479206f776e6564000000000000000000000000000000000000006044820152606401610501565b600780545f91826106ef836114bc565b9190505590506106ff8382610a19565b6001600160a01b039092165f90815260086020908152604080832060ff909416808452938252808320805460ff19908116600117909155948352600990915290208054909216179055565b5f6001600160a01b038216610774576040516322718ad960e21b81525f6004820152602401610501565b506001600160a01b03165f9081526003602052604090205490565b6107976109ec565b6107a05f610a32565b565b60606001805461042590611386565b6104d8338383610a90565b6107c78484846104dc565b6105643385858585610b2e565b60606107df826108a8565b505f6107e9610c56565b90505f8151116108075760405180602001604052805f815250610832565b8061081184610c65565b6040516020016108229291906114f7565b6040516020818303038152906040525b9392505050565b6108416109ec565b6001600160a01b03919091165f908152600b60205260409020805460ff1916911515919091179055565b6108736109ec565b6001600160a01b03811661089c57604051631e4fbdf760e01b81525f6004820152602401610501565b6108a581610a32565b50565b5f818152600260205260408120546001600160a01b03168061041157604051637e27328960e01b815260048101849052602401610501565b6105848383836001610d02565b5f828152600260205260408120546001600160a01b039081169083161561091957610919818486610e31565b6001600160a01b03811615610953576109345f855f5f610d02565b6001600160a01b0381165f90815260036020526040902080545f190190555b6001600160a01b03851615610981576001600160a01b0385165f908152600360205260409020805460010190555b5f84815260026020526040808220805473ffffffffffffffffffffffffffffffffffffffff19166001600160a01b0389811691821790925591518793918516917fddf252ad1be2c89b69c2b068fc378daa952ba7f163c4a11628f55a4df523b3ef91a4949350505050565b6006546001600160a01b031633146107a05760405163118cdaa760e01b8152336004820152602401610501565b6104d8828260405180602001604052805f815250610e95565b600680546001600160a01b0383811673ffffffffffffffffffffffffffffffffffffffff19831681179093556040519116919082907f8be0079c531659141344cd1fd0a4f28419497f9722a3daafe3b4186f6b6457e0905f90a35050565b6001600160a01b038216610ac257604051630b61174360e31b81526001600160a01b0383166004820152602401610501565b6001600160a01b038381165f81815260056020908152604080832094871680845294825291829020805460ff191686151590811790915591519182527f17307eab39ab6107e8899845ad3d59bd9653f200f220920489ca2b5937696c31910160405180910390a3505050565b6001600160a01b0383163b15610c4f57604051630a85bd0160e11b81526001600160a01b0384169063150b7a0290610b7090889088908790879060040161150b565b6020604051808303815f875af1925050508015610baa575060408051601f3d908101601f19168201909252610ba79181019061154b565b60015b610c11573d808015610bd7576040519150601f19603f3d011682016040523d82523d5f602084013e610bdc565b606091505b5080515f03610c0957604051633250574960e11b81526001600160a01b0385166004820152602401610501565b805160208201fd5b6001600160e01b03198116630a85bd0160e11b14610c4d57604051633250574960e11b81526001600160a01b0385166004820152602401610501565b505b5050505050565b6060600a805461042590611386565b60605f610c7183610eac565b60010190505f8167ffffffffffffffff811115610c9057610c90611264565b6040519080825280601f01601f191660200182016040528015610cba576020820181803683370190505b5090508181016020015b5f19017f3031323334353637383961626364656600000000000000000000000000000000600a86061a8153600a8504945084610cc457509392505050565b8080610d1657506001600160a01b03821615155b15610df5575f610d25846108a8565b90506001600160a01b03831615801590610d515750826001600160a01b0316816001600160a01b031614155b8015610d8257506001600160a01b038082165f9081526005602090815260408083209387168352929052205460ff16155b15610dab5760405163a9fbf51f60e01b81526001600160a01b0384166004820152602401610501565b8115610df35783856001600160a01b0316826001600160a01b03167f8c5be1e5ebec7d5bd14f71427d1e84f3dd0314c0f7b2291e5b200ac8c7c3b92560405160405180910390a45b505b50505f908152600460205260409020805473ffffffffffffffffffffffffffffffffffffffff19166001600160a01b0392909216919091179055565b610e3c838383610f8d565b610584576001600160a01b038316610e6a57604051637e27328960e01b815260048101829052602401610501565b60405163177e802f60e01b81526001600160a01b038316600482015260248101829052604401610501565b610e9f8383611010565b610584335f858585610b2e565b5f807a184f03e93ff9f4daa797ed6e38ed64bf6a1f0100000000000000008310610ef4577a184f03e93ff9f4daa797ed6e38ed64bf6a1f010000000000000000830492506040015b6d04ee2d6d415b85acef81000000008310610f20576d04ee2d6d415b85acef8100000000830492506020015b662386f26fc100008310610f3e57662386f26fc10000830492506010015b6305f5e1008310610f56576305f5e100830492506008015b6127108310610f6a57612710830492506004015b60648310610f7c576064830492506002015b600a83106104115760010192915050565b5f6001600160a01b038316158015906110085750826001600160a01b0316846001600160a01b03161480610fe557506001600160a01b038085165f9081526005602090815260408083209387168352929052205460ff165b8061100857505f828152600460205260409020546001600160a01b038481169116145b949350505050565b6001600160a01b03821661103957604051633250574960e11b81525f6004820152602401610501565b5f61104583835f6108ed565b90506001600160a01b03811615610584576040516339e3563760e11b81525f6004820152602401610501565b6001600160e01b0319811681146108a5575f5ffd5b5f60208284031215611096575f5ffd5b813561083281611071565b5f81518084528060208401602086015e5f602082860101526020601f19601f83011685010191505092915050565b602081525f61083260208301846110a1565b5f602082840312156110f1575f5ffd5b5035919050565b80356001600160a01b038116811461110e575f5ffd5b919050565b5f5f60408385031215611124575f5ffd5b61112d836110f8565b946020939093013593505050565b5f5f5f6060848603121561114d575f5ffd5b611156846110f8565b9250611164602085016110f8565b929592945050506040919091013590565b5f5f60408385031215611186575f5ffd5b61118f836110f8565b9150602083013560ff811681146111a4575f5ffd5b809150509250929050565b5f5f602083850312156111c0575f5ffd5b823567ffffffffffffffff8111156111d6575f5ffd5b8301601f810185136111e6575f5ffd5b803567ffffffffffffffff8111156111fc575f5ffd5b85602082840101111561120d575f5ffd5b6020919091019590945092505050565b5f6020828403121561122d575f5ffd5b610832826110f8565b5f5f60408385031215611247575f5ffd5b611250836110f8565b9150602083013580151581146111a4575f5ffd5b634e487b7160e01b5f52604160045260245ffd5b5f5f5f5f6080858703121561128b575f5ffd5b611294856110f8565b93506112a2602086016110f8565b925060408501359150606085013567ffffffffffffffff8111156112c4575f5ffd5b8501601f810187136112d4575f5ffd5b803567ffffffffffffffff8111156112ee576112ee611264565b604051601f8201601f19908116603f0116810167ffffffffffffffff8111828210171561131d5761131d611264565b604052818152828201602001891015611334575f5ffd5b816020840160208301375f6020838301015280935050505092959194509250565b5f5f60408385031215611366575f5ffd5b61136f836110f8565b915061137d602084016110f8565b90509250929050565b600181811c9082168061139a57607f821691505b6020821081036113b857634e487b7160e01b5f52602260045260245ffd5b50919050565b601f82111561058457805f5260205f20601f840160051c810160208510156113e35750805b601f840160051c820191505b81811015610c4f575f81556001016113ef565b67ffffffffffffffff83111561141a5761141a611264565b61142e836114288354611386565b836113be565b5f601f84116001811461145f575f85156114485750838201355b5f19600387901b1c1916600186901b178355610c4f565b5f83815260208120601f198716915b8281101561148e578685013582556020948501946001909201910161146e565b50868210156114aa575f1960f88860031b161c19848701351681555b505060018560011b0183555050505050565b5f600182016114d957634e487b7160e01b5f52601160045260245ffd5b5060010190565b5f81518060208401855e5f93019283525090919050565b5f61100861150583866114e0565b846114e0565b6001600160a01b03851681526001600160a01b0384166020820152826040820152608060608201525f61154160808301846110a1565b9695505050505050565b5f6020828403121561155b575f5ffd5b81516108328161107156fea164736f6c634300081b000a",
  "linkReferences": {},
  "deployedLinkReferences": {}
}